{
  "contractName": "Insure",
  "abi": [
    {
      "anonymous": false,
      "inputs": [
        {
          "indexed": true,
          "internalType": "uint256",
          "name": "_auctionId",
          "type": "uint256"
        }
      ],
      "name": "policyCreated",
      "type": "event"
    },
    {
      "anonymous": false,
      "inputs": [
        {
          "indexed": true,
          "internalType": "uint256",
          "name": "_bidId",
          "type": "uint256"
        }
      ],
      "name": "purchaseCreated",
      "type": "event"
    },
    {
      "anonymous": false,
      "inputs": [
        {
          "indexed": true,
          "internalType": "uint256",
          "name": "_userId",
          "type": "uint256"
        }
      ],
      "name": "userCreated",
      "type": "event"
    },
    {
      "inputs": [],
      "name": "policyCount",
      "outputs": [
        {
          "internalType": "uint256",
          "name": "",
          "type": "uint256"
        }
      ],
      "stateMutability": "view",
      "type": "function",
      "constant": true
    },
    {
      "inputs": [
        {
          "internalType": "uint256",
          "name": "",
          "type": "uint256"
        }
      ],
      "name": "policyList",
      "outputs": [
        {
          "internalType": "string",
          "name": "policy_id",
          "type": "string"
        },
        {
          "internalType": "string",
          "name": "policy_name",
          "type": "string"
        },
        {
          "internalType": "string",
          "name": "insurance_amount",
          "type": "string"
        },
        {
          "internalType": "string",
          "name": "purchase_amount",
          "type": "string"
        },
        {
          "internalType": "string",
          "name": "covered_duration",
          "type": "string"
        },
        {
          "internalType": "string",
          "name": "description",
          "type": "string"
        },
        {
          "internalType": "string",
          "name": "provider_name",
          "type": "string"
        }
      ],
      "stateMutability": "view",
      "type": "function",
      "constant": true
    },
    {
      "inputs": [],
      "name": "purchaseCount",
      "outputs": [
        {
          "internalType": "uint256",
          "name": "",
          "type": "uint256"
        }
      ],
      "stateMutability": "view",
      "type": "function",
      "constant": true
    },
    {
      "inputs": [
        {
          "internalType": "uint256",
          "name": "",
          "type": "uint256"
        }
      ],
      "name": "purchaseList",
      "outputs": [
        {
          "internalType": "string",
          "name": "username",
          "type": "string"
        },
        {
          "internalType": "string",
          "name": "insurance_id",
          "type": "string"
        },
        {
          "internalType": "string",
          "name": "purchase_date",
          "type": "string"
        },
        {
          "internalType": "string",
          "name": "claim_details",
          "type": "string"
        }
      ],
      "stateMutability": "view",
      "type": "function",
      "constant": true
    },
    {
      "inputs": [],
      "name": "userCount",
      "outputs": [
        {
          "internalType": "uint256",
          "name": "",
          "type": "uint256"
        }
      ],
      "stateMutability": "view",
      "type": "function",
      "constant": true
    },
    {
      "inputs": [
        {
          "internalType": "uint256",
          "name": "",
          "type": "uint256"
        }
      ],
      "name": "userList",
      "outputs": [
        {
          "internalType": "string",
          "name": "username",
          "type": "string"
        },
        {
          "internalType": "string",
          "name": "password",
          "type": "string"
        },
        {
          "internalType": "string",
          "name": "phone",
          "type": "string"
        },
        {
          "internalType": "string",
          "name": "email",
          "type": "string"
        },
        {
          "internalType": "string",
          "name": "user_address",
          "type": "string"
        }
      ],
      "stateMutability": "view",
      "type": "function",
      "constant": true
    },
    {
      "inputs": [
        {
          "internalType": "string",
          "name": "uname",
          "type": "string"
        },
        {
          "internalType": "string",
          "name": "pass",
          "type": "string"
        },
        {
          "internalType": "string",
          "name": "phone",
          "type": "string"
        },
        {
          "internalType": "string",
          "name": "email",
          "type": "string"
        },
        {
          "internalType": "string",
          "name": "add",
          "type": "string"
        }
      ],
      "name": "saveUser",
      "outputs": [],
      "stateMutability": "nonpayable",
      "type": "function"
    },
    {
      "inputs": [],
      "name": "getUserCount",
      "outputs": [
        {
          "internalType": "uint256",
          "name": "",
          "type": "uint256"
        }
      ],
      "stateMutability": "view",
      "type": "function",
      "constant": true
    },
    {
      "inputs": [
        {
          "internalType": "string",
          "name": "pid",
          "type": "string"
        },
        {
          "internalType": "string",
          "name": "pname",
          "type": "string"
        },
        {
          "internalType": "string",
          "name": "ins_amount",
          "type": "string"
        },
        {
          "internalType": "string",
          "name": "pur_amount",
          "type": "string"
        },
        {
          "internalType": "string",
          "name": "duration",
          "type": "string"
        },
        {
          "internalType": "string",
          "name": "desc",
          "type": "string"
        },
        {
          "internalType": "string",
          "name": "provider",
          "type": "string"
        }
      ],
      "name": "savePolicy",
      "outputs": [],
      "stateMutability": "nonpayable",
      "type": "function"
    },
    {
      "inputs": [],
      "name": "getPolicyCount",
      "outputs": [
        {
          "internalType": "uint256",
          "name": "",
          "type": "uint256"
        }
      ],
      "stateMutability": "view",
      "type": "function",
      "constant": true
    },
    {
      "inputs": [
        {
          "internalType": "string",
          "name": "users",
          "type": "string"
        },
        {
          "internalType": "string",
          "name": "iid",
          "type": "string"
        },
        {
          "internalType": "string",
          "name": "pdate",
          "type": "string"
        },
        {
          "internalType": "string",
          "name": "cd",
          "type": "string"
        }
      ],
      "name": "savePurchase",
      "outputs": [],
      "stateMutability": "nonpayable",
      "type": "function"
    },
    {
      "inputs": [],
      "name": "getPurchaseCount",
      "outputs": [
        {
          "internalType": "uint256",
          "name": "",
          "type": "uint256"
        }
      ],
      "stateMutability": "view",
      "type": "function",
      "constant": true
    },
    {
      "inputs": [
        {
          "internalType": "uint256",
          "name": "i",
          "type": "uint256"
        },
        {
          "internalType": "string",
          "name": "value",
          "type": "string"
        }
      ],
      "name": "updateClaim",
      "outputs": [],
      "stateMutability": "nonpayable",
      "type": "function"
    },
    {
      "inputs": [
        {
          "internalType": "uint256",
          "name": "i",
          "type": "uint256"
        }
      ],
      "name": "getUsername",
      "outputs": [
        {
          "internalType": "string",
          "name": "",
          "type": "string"
        }
      ],
      "stateMutability": "view",
      "type": "function",
      "constant": true
    },
    {
      "inputs": [
        {
          "internalType": "uint256",
          "name": "i",
          "type": "uint256"
        }
      ],
      "name": "getPassword",
      "outputs": [
        {
          "internalType": "string",
          "name": "",
          "type": "string"
        }
      ],
      "stateMutability": "view",
      "type": "function",
      "constant": true
    },
    {
      "inputs": [
        {
          "internalType": "uint256",
          "name": "i",
          "type": "uint256"
        }
      ],
      "name": "getPhone",
      "outputs": [
        {
          "internalType": "string",
          "name": "",
          "type": "string"
        }
      ],
      "stateMutability": "view",
      "type": "function",
      "constant": true
    },
    {
      "inputs": [
        {
          "internalType": "uint256",
          "name": "i",
          "type": "uint256"
        }
      ],
      "name": "getEmail",
      "outputs": [
        {
          "internalType": "string",
          "name": "",
          "type": "string"
        }
      ],
      "stateMutability": "view",
      "type": "function",
      "constant": true
    },
    {
      "inputs": [
        {
          "internalType": "uint256",
          "name": "i",
          "type": "uint256"
        }
      ],
      "name": "getAddress",
      "outputs": [
        {
          "internalType": "string",
          "name": "",
          "type": "string"
        }
      ],
      "stateMutability": "view",
      "type": "function",
      "constant": true
    },
    {
      "inputs": [
        {
          "internalType": "uint256",
          "name": "i",
          "type": "uint256"
        }
      ],
      "name": "getPolicyID",
      "outputs": [
        {
          "internalType": "string",
          "name": "",
          "type": "string"
        }
      ],
      "stateMutability": "view",
      "type": "function",
      "constant": true
    },
    {
      "inputs": [
        {
          "internalType": "uint256",
          "name": "i",
          "type": "uint256"
        }
      ],
      "name": "getPolicyName",
      "outputs": [
        {
          "internalType": "string",
          "name": "",
          "type": "string"
        }
      ],
      "stateMutability": "view",
      "type": "function",
      "constant": true
    },
    {
      "inputs": [
        {
          "internalType": "uint256",
          "name": "i",
          "type": "uint256"
        }
      ],
      "name": "getInsuredAmount",
      "outputs": [
        {
          "internalType": "string",
          "name": "",
          "type": "string"
        }
      ],
      "stateMutability": "view",
      "type": "function",
      "constant": true
    },
    {
      "inputs": [
        {
          "internalType": "uint256",
          "name": "i",
          "type": "uint256"
        }
      ],
      "name": "getPurchaseAmount",
      "outputs": [
        {
          "internalType": "string",
          "name": "",
          "type": "string"
        }
      ],
      "stateMutability": "view",
      "type": "function",
      "constant": true
    },
    {
      "inputs": [
        {
          "internalType": "uint256",
          "name": "i",
          "type": "uint256"
        }
      ],
      "name": "getDuration",
      "outputs": [
        {
          "internalType": "string",
          "name": "",
          "type": "string"
        }
      ],
      "stateMutability": "view",
      "type": "function",
      "constant": true
    },
    {
      "inputs": [
        {
          "internalType": "uint256",
          "name": "i",
          "type": "uint256"
        }
      ],
      "name": "getDescription",
      "outputs": [
        {
          "internalType": "string",
          "name": "",
          "type": "string"
        }
      ],
      "stateMutability": "view",
      "type": "function",
      "constant": true
    },
    {
      "inputs": [
        {
          "internalType": "uint256",
          "name": "i",
          "type": "uint256"
        }
      ],
      "name": "getProviderName",
      "outputs": [
        {
          "internalType": "string",
          "name": "",
          "type": "string"
        }
      ],
      "stateMutability": "view",
      "type": "function",
      "constant": true
    },
    {
      "inputs": [
        {
          "internalType": "uint256",
          "name": "i",
          "type": "uint256"
        }
      ],
      "name": "getPurchaserName",
      "outputs": [
        {
          "internalType": "string",
          "name": "",
          "type": "string"
        }
      ],
      "stateMutability": "view",
      "type": "function",
      "constant": true
    },
    {
      "inputs": [
        {
          "internalType": "uint256",
          "name": "i",
          "type": "uint256"
        }
      ],
      "name": "getInsuranceID",
      "outputs": [
        {
          "internalType": "string",
          "name": "",
          "type": "string"
        }
      ],
      "stateMutability": "view",
      "type": "function",
      "constant": true
    },
    {
      "inputs": [
        {
          "internalType": "uint256",
          "name": "i",
          "type": "uint256"
        }
      ],
      "name": "getPurchaseDate",
      "outputs": [
        {
          "internalType": "string",
          "name": "",
          "type": "string"
        }
      ],
      "stateMutability": "view",
      "type": "function",
      "constant": true
    },
    {
      "inputs": [
        {
          "internalType": "uint256",
          "name": "i",
          "type": "uint256"
        }
      ],
      "name": "getClaimDetails",
      "outputs": [
        {
          "internalType": "string",
          "name": "",
          "type": "string"
        }
      ],
      "stateMutability": "view",
      "type": "function",
      "constant": true
    }
  ],
  "bytecode": "0x6080604052600080556000600255600060045534801561001e57600080fd5b506148bb8061002e6000396000f3fe608060405234801561001057600080fd5b50600436106101ec576000357c0100000000000000000000000000000000000000000000000000000000900480638ef11d7a11610121578063bac71e00116100bf578063e59771d21161008e578063e59771d2146103ee578063e9a6f346146103f6578063f18d18cc14610409578063f38c6bb61461041c57600080fd5b8063bac71e00146103b7578063becd283f146103ca578063d2f3ea43146103d2578063de54d429146103e557600080fd5b80639f4216e8116100fb5780639f4216e814610365578063b5cb15f714610389578063b93f9b0a14610391578063ba842e1e146103a457600080fd5b80638ef11d7a1461031c57806392d78a421461033f578063972fe8bc1461035257600080fd5b80634f5e63071161018e57806362d01a151161016857806362d01a15146102d05780636f296a34146102e35780637193ad3d146102f65780638bb126a71461030957600080fd5b80634f5e6307146102825780634fdc9ea9146102975780635998f775146102bd57600080fd5b80632e7d44b5116101ca5780632e7d44b514610236578063404581131461024957806340a2c6991461025c5780634925ec551461026f57600080fd5b806307973ccf146101f15780630c5a97a61461020d5780632b85ed9c1461022d575b600080fd5b6101fa60005481565b6040519081526020015b60405180910390f35b61022061021b366004614276565b61042f565b60405161020491906142dc565b6101fa60045481565b610220610244366004614276565b61085b565b610220610257366004614276565b610b63565b61022061026a366004614276565b610f8f565b61022061027d366004614276565b611177565b6102956102903660046143b2565b6115a3565b005b6102aa6102a5366004614276565b6115cd565b60405161020497969594939291906143f9565b6102206102cb366004614276565b6119bf565b6102956102de366004614490565b611d5d565b6102206102f1366004614276565b611e41565b610220610304366004614276565b6120b5565b610220610317366004614276565b612453565b61032f61032a366004614276565b61287f565b604051610204949392919061453d565b61029561034d366004614595565b612ac7565b610220610360366004614276565b612c1f565b610378610373366004614276565b612f27565b6040516102049594939291906146b0565b6000546101fa565b61022061039f366004614276565b6131fd565b6102206103b2366004614276565b613477565b6102206103c5366004614276565b61365f565b6004546101fa565b6102206103e0366004614276565b613847565b6101fa60025481565b6002546101fa565b61029561040436600461471d565b613be5565b610220610417366004614276565b613ce9565b61022061042a366004614276565b613f63565b60606000600360008481526020019081526020016000206040518060e0016040529081600082018054610461906147ef565b80601f016020809104026020016040519081016040528092919081815260200182805461048d906147ef565b80156104da5780601f106104af576101008083540402835291602001916104da565b820191906000526020600020905b8154815290600101906020018083116104bd57829003601f168201915b505050505081526020016001820180546104f3906147ef565b80601f016020809104026020016040519081016040528092919081815260200182805461051f906147ef565b801561056c5780601f106105415761010080835404028352916020019161056c565b820191906000526020600020905b81548152906001019060200180831161054f57829003601f168201915b50505050508152602001600282018054610585906147ef565b80601f01602080910402602001604051908101604052809291908181526020018280546105b1906147ef565b80156105fe5780601f106105d3576101008083540402835291602001916105fe565b820191906000526020600020905b8154815290600101906020018083116105e157829003601f168201915b50505050508152602001600382018054610617906147ef565b80601f0160208091040260200160405190810160405280929190818152602001828054610643906147ef565b80156106905780601f1061066557610100808354040283529160200191610690565b820191906000526020600020905b81548152906001019060200180831161067357829003601f168201915b505050505081526020016004820180546106a9906147ef565b80601f01602080910402602001604051908101604052809291908181526020018280546106d5906147ef565b80156107225780601f106106f757610100808354040283529160200191610722565b820191906000526020600020905b81548152906001019060200180831161070557829003601f168201915b5050505050815260200160058201805461073b906147ef565b80601f0160208091040260200160405190810160405280929190818152602001828054610767906147ef565b80156107b45780601f10610789576101008083540402835291602001916107b4565b820191906000526020600020905b81548152906001019060200180831161079757829003601f168201915b505050505081526020016006820180546107cd906147ef565b80601f01602080910402602001604051908101604052809291908181526020018280546107f9906147ef565b80156108465780601f1061081b57610100808354040283529160200191610846565b820191906000526020600020905b81548152906001019060200180831161082957829003601f168201915b5050509190925250505060c001519392505050565b60606000600160008481526020019081526020016000206040518060a001604052908160008201805461088d906147ef565b80601f01602080910402602001604051908101604052809291908181526020018280546108b9906147ef565b80156109065780601f106108db57610100808354040283529160200191610906565b820191906000526020600020905b8154815290600101906020018083116108e957829003601f168201915b5050505050815260200160018201805461091f906147ef565b80601f016020809104026020016040519081016040528092919081815260200182805461094b906147ef565b80156109985780601f1061096d57610100808354040283529160200191610998565b820191906000526020600020905b81548152906001019060200180831161097b57829003601f168201915b505050505081526020016002820180546109b1906147ef565b80601f01602080910402602001604051908101604052809291908181526020018280546109dd906147ef565b8015610a2a5780601f106109ff57610100808354040283529160200191610a2a565b820191906000526020600020905b815481529060010190602001808311610a0d57829003601f168201915b50505050508152602001600382018054610a43906147ef565b80601f0160208091040260200160405190810160405280929190818152602001828054610a6f906147ef565b8015610abc5780601f10610a9157610100808354040283529160200191610abc565b820191906000526020600020905b815481529060010190602001808311610a9f57829003601f168201915b50505050508152602001600482018054610ad5906147ef565b80601f0160208091040260200160405190810160405280929190818152602001828054610b01906147ef565b8015610b4e5780601f10610b2357610100808354040283529160200191610b4e565b820191906000526020600020905b815481529060010190602001808311610b3157829003601f168201915b50505091909252505050604001519392505050565b60606000600360008481526020019081526020016000206040518060e0016040529081600082018054610b95906147ef565b80601f0160208091040260200160405190810160405280929190818152602001828054610bc1906147ef565b8015610c0e5780601f10610be357610100808354040283529160200191610c0e565b820191906000526020600020905b815481529060010190602001808311610bf157829003601f168201915b50505050508152602001600182018054610c27906147ef565b80601f0160208091040260200160405190810160405280929190818152602001828054610c53906147ef565b8015610ca05780601f10610c7557610100808354040283529160200191610ca0565b820191906000526020600020905b815481529060010190602001808311610c8357829003601f168201915b50505050508152602001600282018054610cb9906147ef565b80601f0160208091040260200160405190810160405280929190818152602001828054610ce5906147ef565b8015610d325780601f10610d0757610100808354040283529160200191610d32565b820191906000526020600020905b815481529060010190602001808311610d1557829003601f168201915b50505050508152602001600382018054610d4b906147ef565b80601f0160208091040260200160405190810160405280929190818152602001828054610d77906147ef565b8015610dc45780601f10610d9957610100808354040283529160200191610dc4565b820191906000526020600020905b815481529060010190602001808311610da757829003601f168201915b50505050508152602001600482018054610ddd906147ef565b80601f0160208091040260200160405190810160405280929190818152602001828054610e09906147ef565b8015610e565780601f10610e2b57610100808354040283529160200191610e56565b820191906000526020600020905b815481529060010190602001808311610e3957829003601f168201915b50505050508152602001600582018054610e6f906147ef565b80601f0160208091040260200160405190810160405280929190818152602001828054610e9b906147ef565b8015610ee85780601f10610ebd57610100808354040283529160200191610ee8565b820191906000526020600020905b815481529060010190602001808311610ecb57829003601f168201915b50505050508152602001600682018054610f01906147ef565b80601f0160208091040260200160405190810160405280929190818152602001828054610f2d906147ef565b8015610f7a5780601f10610f4f57610100808354040283529160200191610f7a565b820191906000526020600020905b815481529060010190602001808311610f5d57829003601f168201915b50505091909252505050602001519392505050565b6060600060056000848152602001908152602001600020604051806080016040529081600082018054610fc1906147ef565b80601f0160208091040260200160405190810160405280929190818152602001828054610fed906147ef565b801561103a5780601f1061100f5761010080835404028352916020019161103a565b820191906000526020600020905b81548152906001019060200180831161101d57829003601f168201915b50505050508152602001600182018054611053906147ef565b80601f016020809104026020016040519081016040528092919081815260200182805461107f906147ef565b80156110cc5780601f106110a1576101008083540402835291602001916110cc565b820191906000526020600020905b8154815290600101906020018083116110af57829003601f168201915b505050505081526020016002820180546110e5906147ef565b80601f0160208091040260200160405190810160405280929190818152602001828054611111906147ef565b801561115e5780601f106111335761010080835404028352916020019161115e565b820191906000526020600020905b81548152906001019060200180831161114157829003601f168201915b50505050508152602001600382018054610ad5906147ef565b60606000600360008481526020019081526020016000206040518060e00160405290816000820180546111a9906147ef565b80601f01602080910402602001604051908101604052809291908181526020018280546111d5906147ef565b80156112225780601f106111f757610100808354040283529160200191611222565b820191906000526020600020905b81548152906001019060200180831161120557829003601f168201915b5050505050815260200160018201805461123b906147ef565b80601f0160208091040260200160405190810160405280929190818152602001828054611267906147ef565b80156112b45780601f10611289576101008083540402835291602001916112b4565b820191906000526020600020905b81548152906001019060200180831161129757829003601f168201915b505050505081526020016002820180546112cd906147ef565b80601f01602080910402602001604051908101604052809291908181526020018280546112f9906147ef565b80156113465780601f1061131b57610100808354040283529160200191611346565b820191906000526020600020905b81548152906001019060200180831161132957829003601f168201915b5050505050815260200160038201805461135f906147ef565b80601f016020809104026020016040519081016040528092919081815260200182805461138b906147ef565b80156113d85780601f106113ad576101008083540402835291602001916113d8565b820191906000526020600020905b8154815290600101906020018083116113bb57829003601f168201915b505050505081526020016004820180546113f1906147ef565b80601f016020809104026020016040519081016040528092919081815260200182805461141d906147ef565b801561146a5780601f1061143f5761010080835404028352916020019161146a565b820191906000526020600020905b81548152906001019060200180831161144d57829003601f168201915b50505050508152602001600582018054611483906147ef565b80601f01602080910402602001604051908101604052809291908181526020018280546114af906147ef565b80156114fc5780601f106114d1576101008083540402835291602001916114fc565b820191906000526020600020905b8154815290600101906020018083116114df57829003601f168201915b50505050508152602001600682018054611515906147ef565b80601f0160208091040260200160405190810160405280929190818152602001828054611541906147ef565b801561158e5780601f106115635761010080835404028352916020019161158e565b820191906000526020600020905b81548152906001019060200180831161157157829003601f168201915b5050509190925250505060a001519392505050565b600082815260056020908152604090912082516115c8926003909201918401906141dd565b505050565b6003602052600090815260409020805481906115e8906147ef565b80601f0160208091040260200160405190810160405280929190818152602001828054611614906147ef565b80156116615780601f1061163657610100808354040283529160200191611661565b820191906000526020600020905b81548152906001019060200180831161164457829003601f168201915b505050505090806001018054611676906147ef565b80601f01602080910402602001604051908101604052809291908181526020018280546116a2906147ef565b80156116ef5780601f106116c4576101008083540402835291602001916116ef565b820191906000526020600020905b8154815290600101906020018083116116d257829003601f168201915b505050505090806002018054611704906147ef565b80601f0160208091040260200160405190810160405280929190818152602001828054611730906147ef565b801561177d5780601f106117525761010080835404028352916020019161177d565b820191906000526020600020905b81548152906001019060200180831161176057829003601f168201915b505050505090806003018054611792906147ef565b80601f01602080910402602001604051908101604052809291908181526020018280546117be906147ef565b801561180b5780601f106117e05761010080835404028352916020019161180b565b820191906000526020600020905b8154815290600101906020018083116117ee57829003601f168201915b505050505090806004018054611820906147ef565b80601f016020809104026020016040519081016040528092919081815260200182805461184c906147ef565b80156118995780601f1061186e57610100808354040283529160200191611899565b820191906000526020600020905b81548152906001019060200180831161187c57829003601f168201915b5050505050908060050180546118ae906147ef565b80601f01602080910402602001604051908101604052809291908181526020018280546118da906147ef565b80156119275780601f106118fc57610100808354040283529160200191611927565b820191906000526020600020905b81548152906001019060200180831161190a57829003601f168201915b50505050509080600601805461193c906147ef565b80601f0160208091040260200160405190810160405280929190818152602001828054611968906147ef565b80156119b55780601f1061198a576101008083540402835291602001916119b5565b820191906000526020600020905b81548152906001019060200180831161199857829003601f168201915b5050505050905087565b60606000600360008481526020019081526020016000206040518060e00160405290816000820180546119f1906147ef565b80601f0160208091040260200160405190810160405280929190818152602001828054611a1d906147ef565b8015611a6a5780601f10611a3f57610100808354040283529160200191611a6a565b820191906000526020600020905b815481529060010190602001808311611a4d57829003601f168201915b50505050508152602001600182018054611a83906147ef565b80601f0160208091040260200160405190810160405280929190818152602001828054611aaf906147ef565b8015611afc5780601f10611ad157610100808354040283529160200191611afc565b820191906000526020600020905b815481529060010190602001808311611adf57829003601f168201915b50505050508152602001600282018054611b15906147ef565b80601f0160208091040260200160405190810160405280929190818152602001828054611b41906147ef565b8015611b8e5780601f10611b6357610100808354040283529160200191611b8e565b820191906000526020600020905b815481529060010190602001808311611b7157829003601f168201915b50505050508152602001600382018054611ba7906147ef565b80601f0160208091040260200160405190810160405280929190818152602001828054611bd3906147ef565b8015611c205780601f10611bf557610100808354040283529160200191611c20565b820191906000526020600020905b815481529060010190602001808311611c0357829003601f168201915b50505050508152602001600482018054611c39906147ef565b80601f0160208091040260200160405190810160405280929190818152602001828054611c65906147ef565b8015611cb25780601f10611c8757610100808354040283529160200191611cb2565b820191906000526020600020905b815481529060010190602001808311611c9557829003601f168201915b50505050508152602001600582018054611ccb906147ef565b80601f0160208091040260200160405190810160405280929190818152602001828054611cf7906147ef565b8015611d445780601f10611d1957610100808354040283529160200191611d44565b820191906000526020600020905b815481529060010190602001808311611d2757829003601f168201915b50505050508152602001600682018054610ad5906147ef565b60408051608081018252858152602080820186905281830185905260608201849052600454600090815260058252929092208151805192939192611da492849201906141dd565b506020828101518051611dbd92600185019201906141dd565b5060408201518051611dd99160028401916020909101906141dd565b5060608201518051611df59160038401916020909101906141dd565b50506004546040519091507fb2f299461fb105d40006c6de3d3562d3fc15aa6c29486a159068bd61a87bc5cc90600090a260048054906000611e3683614843565b919050555050505050565b6060600060056000848152602001908152602001600020604051806080016040529081600082018054611e73906147ef565b80601f0160208091040260200160405190810160405280929190818152602001828054611e9f906147ef565b8015611eec5780601f10611ec157610100808354040283529160200191611eec565b820191906000526020600020905b815481529060010190602001808311611ecf57829003601f168201915b50505050508152602001600182018054611f05906147ef565b80601f0160208091040260200160405190810160405280929190818152602001828054611f31906147ef565b8015611f7e5780601f10611f5357610100808354040283529160200191611f7e565b820191906000526020600020905b815481529060010190602001808311611f6157829003601f168201915b50505050508152602001600282018054611f97906147ef565b80601f0160208091040260200160405190810160405280929190818152602001828054611fc3906147ef565b80156120105780601f10611fe557610100808354040283529160200191612010565b820191906000526020600020905b815481529060010190602001808311611ff357829003601f168201915b50505050508152602001600382018054612029906147ef565b80601f0160208091040260200160405190810160405280929190818152602001828054612055906147ef565b80156120a25780601f10612077576101008083540402835291602001916120a2565b820191906000526020600020905b81548152906001019060200180831161208557829003601f168201915b5050509190925250509051949350505050565b60606000600360008481526020019081526020016000206040518060e00160405290816000820180546120e7906147ef565b80601f0160208091040260200160405190810160405280929190818152602001828054612113906147ef565b80156121605780601f1061213557610100808354040283529160200191612160565b820191906000526020600020905b81548152906001019060200180831161214357829003601f168201915b50505050508152602001600182018054612179906147ef565b80601f01602080910402602001604051908101604052809291908181526020018280546121a5906147ef565b80156121f25780601f106121c7576101008083540402835291602001916121f2565b820191906000526020600020905b8154815290600101906020018083116121d557829003601f168201915b5050505050815260200160028201805461220b906147ef565b80601f0160208091040260200160405190810160405280929190818152602001828054612237906147ef565b80156122845780601f1061225957610100808354040283529160200191612284565b820191906000526020600020905b81548152906001019060200180831161226757829003601f168201915b5050505050815260200160038201805461229d906147ef565b80601f01602080910402602001604051908101604052809291908181526020018280546122c9906147ef565b80156123165780601f106122eb57610100808354040283529160200191612316565b820191906000526020600020905b8154815290600101906020018083116122f957829003601f168201915b5050505050815260200160048201805461232f906147ef565b80601f016020809104026020016040519081016040528092919081815260200182805461235b906147ef565b80156123a85780601f1061237d576101008083540402835291602001916123a8565b820191906000526020600020905b81548152906001019060200180831161238b57829003601f168201915b505050505081526020016005820180546123c1906147ef565b80601f01602080910402602001604051908101604052809291908181526020018280546123ed906147ef565b801561243a5780601f1061240f5761010080835404028352916020019161243a565b820191906000526020600020905b81548152906001019060200180831161241d57829003601f168201915b50505050508152602001600682018054612029906147ef565b60606000600360008481526020019081526020016000206040518060e0016040529081600082018054612485906147ef565b80601f01602080910402602001604051908101604052809291908181526020018280546124b1906147ef565b80156124fe5780601f106124d3576101008083540402835291602001916124fe565b820191906000526020600020905b8154815290600101906020018083116124e157829003601f168201915b50505050508152602001600182018054612517906147ef565b80601f0160208091040260200160405190810160405280929190818152602001828054612543906147ef565b80156125905780601f1061256557610100808354040283529160200191612590565b820191906000526020600020905b81548152906001019060200180831161257357829003601f168201915b505050505081526020016002820180546125a9906147ef565b80601f01602080910402602001604051908101604052809291908181526020018280546125d5906147ef565b80156126225780601f106125f757610100808354040283529160200191612622565b820191906000526020600020905b81548152906001019060200180831161260557829003601f168201915b5050505050815260200160038201805461263b906147ef565b80601f0160208091040260200160405190810160405280929190818152602001828054612667906147ef565b80156126b45780601f10612689576101008083540402835291602001916126b4565b820191906000526020600020905b81548152906001019060200180831161269757829003601f168201915b505050505081526020016004820180546126cd906147ef565b80601f01602080910402602001604051908101604052809291908181526020018280546126f9906147ef565b80156127465780601f1061271b57610100808354040283529160200191612746565b820191906000526020600020905b81548152906001019060200180831161272957829003601f168201915b5050505050815260200160058201805461275f906147ef565b80601f016020809104026020016040519081016040528092919081815260200182805461278b906147ef565b80156127d85780601f106127ad576101008083540402835291602001916127d8565b820191906000526020600020905b8154815290600101906020018083116127bb57829003601f168201915b505050505081526020016006820180546127f1906147ef565b80601f016020809104026020016040519081016040528092919081815260200182805461281d906147ef565b801561286a5780601f1061283f5761010080835404028352916020019161286a565b820191906000526020600020905b81548152906001019060200180831161284d57829003601f168201915b50505091909252505050608001519392505050565b60056020526000908152604090208054819061289a906147ef565b80601f01602080910402602001604051908101604052809291908181526020018280546128c6906147ef565b80156129135780601f106128e857610100808354040283529160200191612913565b820191906000526020600020905b8154815290600101906020018083116128f657829003601f168201915b505050505090806001018054612928906147ef565b80601f0160208091040260200160405190810160405280929190818152602001828054612954906147ef565b80156129a15780601f10612976576101008083540402835291602001916129a1565b820191906000526020600020905b81548152906001019060200180831161298457829003601f168201915b5050505050908060020180546129b6906147ef565b80601f01602080910402602001604051908101604052809291908181526020018280546129e2906147ef565b8015612a2f5780601f10612a0457610100808354040283529160200191612a2f565b820191906000526020600020905b815481529060010190602001808311612a1257829003601f168201915b505050505090806003018054612a44906147ef565b80601f0160208091040260200160405190810160405280929190818152602001828054612a70906147ef565b8015612abd5780601f10612a9257610100808354040283529160200191612abd565b820191906000526020600020905b815481529060010190602001808311612aa057829003601f168201915b5050505050905084565b6040518060e00160405280888152602001878152602001868152602001858152602001848152602001838152602001828152506003600060025481526020019081526020016000206000820151816000019080519060200190612b2b9291906141dd565b506020828101518051612b4492600185019201906141dd565b5060408201518051612b609160028401916020909101906141dd565b5060608201518051612b7c9160038401916020909101906141dd565b5060808201518051612b989160048401916020909101906141dd565b5060a08201518051612bb49160058401916020909101906141dd565b5060c08201518051612bd09160068401916020909101906141dd565b50506002546040519091507f4ae8d21ac8e2b927182a930a4814687f8a94b2d7ee8d3668cb170f364dd449e090600090a260028054906000612c1183614843565b919050555050505050505050565b60606000600160008481526020019081526020016000206040518060a0016040529081600082018054612c51906147ef565b80601f0160208091040260200160405190810160405280929190818152602001828054612c7d906147ef565b8015612cca5780601f10612c9f57610100808354040283529160200191612cca565b820191906000526020600020905b815481529060010190602001808311612cad57829003601f168201915b50505050508152602001600182018054612ce3906147ef565b80601f0160208091040260200160405190810160405280929190818152602001828054612d0f906147ef565b8015612d5c5780601f10612d3157610100808354040283529160200191612d5c565b820191906000526020600020905b815481529060010190602001808311612d3f57829003601f168201915b50505050508152602001600282018054612d75906147ef565b80601f0160208091040260200160405190810160405280929190818152602001828054612da1906147ef565b8015612dee5780601f10612dc357610100808354040283529160200191612dee565b820191906000526020600020905b815481529060010190602001808311612dd157829003601f168201915b50505050508152602001600382018054612e07906147ef565b80601f0160208091040260200160405190810160405280929190818152602001828054612e33906147ef565b8015612e805780601f10612e5557610100808354040283529160200191612e80565b820191906000526020600020905b815481529060010190602001808311612e6357829003601f168201915b50505050508152602001600482018054612e99906147ef565b80601f0160208091040260200160405190810160405280929190818152602001828054612ec5906147ef565b8015612f125780601f10612ee757610100808354040283529160200191612f12565b820191906000526020600020905b815481529060010190602001808311612ef557829003601f168201915b50505091909252505050606001519392505050565b600160205260009081526040902080548190612f42906147ef565b80601f0160208091040260200160405190810160405280929190818152602001828054612f6e906147ef565b8015612fbb5780601f10612f9057610100808354040283529160200191612fbb565b820191906000526020600020905b815481529060010190602001808311612f9e57829003601f168201915b505050505090806001018054612fd0906147ef565b80601f0160208091040260200160405190810160405280929190818152602001828054612ffc906147ef565b80156130495780601f1061301e57610100808354040283529160200191613049565b820191906000526020600020905b81548152906001019060200180831161302c57829003601f168201915b50505050509080600201805461305e906147ef565b80601f016020809104026020016040519081016040528092919081815260200182805461308a906147ef565b80156130d75780601f106130ac576101008083540402835291602001916130d7565b820191906000526020600020905b8154815290600101906020018083116130ba57829003601f168201915b5050505050908060030180546130ec906147ef565b80601f0160208091040260200160405190810160405280929190818152602001828054613118906147ef565b80156131655780601f1061313a57610100808354040283529160200191613165565b820191906000526020600020905b81548152906001019060200180831161314857829003601f168201915b50505050509080600401805461317a906147ef565b80601f01602080910402602001604051908101604052809291908181526020018280546131a6906147ef565b80156131f35780601f106131c8576101008083540402835291602001916131f3565b820191906000526020600020905b8154815290600101906020018083116131d657829003601f168201915b5050505050905085565b60606000600160008481526020019081526020016000206040518060a001604052908160008201805461322f906147ef565b80601f016020809104026020016040519081016040528092919081815260200182805461325b906147ef565b80156132a85780601f1061327d576101008083540402835291602001916132a8565b820191906000526020600020905b81548152906001019060200180831161328b57829003601f168201915b505050505081526020016001820180546132c1906147ef565b80601f01602080910402602001604051908101604052809291908181526020018280546132ed906147ef565b801561333a5780601f1061330f5761010080835404028352916020019161333a565b820191906000526020600020905b81548152906001019060200180831161331d57829003601f168201915b50505050508152602001600282018054613353906147ef565b80601f016020809104026020016040519081016040528092919081815260200182805461337f906147ef565b80156133cc5780601f106133a1576101008083540402835291602001916133cc565b820191906000526020600020905b8154815290600101906020018083116133af57829003601f168201915b505050505081526020016003820180546133e5906147ef565b80601f0160208091040260200160405190810160405280929190818152602001828054613411906147ef565b801561345e5780601f106134335761010080835404028352916020019161345e565b820191906000526020600020905b81548152906001019060200180831161344157829003601f168201915b505050505081526020016004820180546127f1906147ef565b60606000600560008481526020019081526020016000206040518060800160405290816000820180546134a9906147ef565b80601f01602080910402602001604051908101604052809291908181526020018280546134d5906147ef565b80156135225780601f106134f757610100808354040283529160200191613522565b820191906000526020600020905b81548152906001019060200180831161350557829003601f168201915b5050505050815260200160018201805461353b906147ef565b80601f0160208091040260200160405190810160405280929190818152602001828054613567906147ef565b80156135b45780601f10613589576101008083540402835291602001916135b4565b820191906000526020600020905b81548152906001019060200180831161359757829003601f168201915b505050505081526020016002820180546135cd906147ef565b80601f01602080910402602001604051908101604052809291908181526020018280546135f9906147ef565b80156136465780601f1061361b57610100808354040283529160200191613646565b820191906000526020600020905b81548152906001019060200180831161362957829003601f168201915b50505050508152602001600382018054610f01906147ef565b6060600060056000848152602001908152602001600020604051806080016040529081600082018054613691906147ef565b80601f01602080910402602001604051908101604052809291908181526020018280546136bd906147ef565b801561370a5780601f106136df5761010080835404028352916020019161370a565b820191906000526020600020905b8154815290600101906020018083116136ed57829003601f168201915b50505050508152602001600182018054613723906147ef565b80601f016020809104026020016040519081016040528092919081815260200182805461374f906147ef565b801561379c5780601f106137715761010080835404028352916020019161379c565b820191906000526020600020905b81548152906001019060200180831161377f57829003601f168201915b505050505081526020016002820180546137b5906147ef565b80601f01602080910402602001604051908101604052809291908181526020018280546137e1906147ef565b801561382e5780601f106138035761010080835404028352916020019161382e565b820191906000526020600020905b81548152906001019060200180831161381157829003601f168201915b50505050508152602001600382018054612e99906147ef565b60606000600360008481526020019081526020016000206040518060e0016040529081600082018054613879906147ef565b80601f01602080910402602001604051908101604052809291908181526020018280546138a5906147ef565b80156138f25780601f106138c7576101008083540402835291602001916138f2565b820191906000526020600020905b8154815290600101906020018083116138d557829003601f168201915b5050505050815260200160018201805461390b906147ef565b80601f0160208091040260200160405190810160405280929190818152602001828054613937906147ef565b80156139845780601f1061395957610100808354040283529160200191613984565b820191906000526020600020905b81548152906001019060200180831161396757829003601f168201915b5050505050815260200160028201805461399d906147ef565b80601f01602080910402602001604051908101604052809291908181526020018280546139c9906147ef565b8015613a165780601f106139eb57610100808354040283529160200191613a16565b820191906000526020600020905b8154815290600101906020018083116139f957829003601f168201915b50505050508152602001600382018054613a2f906147ef565b80601f0160208091040260200160405190810160405280929190818152602001828054613a5b906147ef565b8015613aa85780601f10613a7d57610100808354040283529160200191613aa8565b820191906000526020600020905b815481529060010190602001808311613a8b57829003601f168201915b50505050508152602001600482018054613ac1906147ef565b80601f0160208091040260200160405190810160405280929190818152602001828054613aed906147ef565b8015613b3a5780601f10613b0f57610100808354040283529160200191613b3a565b820191906000526020600020905b815481529060010190602001808311613b1d57829003601f168201915b50505050508152602001600582018054613b53906147ef565b80601f0160208091040260200160405190810160405280929190818152602001828054613b7f906147ef565b8015613bcc5780601f10613ba157610100808354040283529160200191613bcc565b820191906000526020600020905b815481529060010190602001808311613baf57829003601f168201915b50505050508152602001600682018054612e99906147ef565b6040805160a0810182528681526020808201879052818301869052606082018590526080820184905260008054815260018252929092208151805192939192613c3192849201906141dd565b506020828101518051613c4a92600185019201906141dd565b5060408201518051613c669160028401916020909101906141dd565b5060608201518051613c829160038401916020909101906141dd565b5060808201518051613c9e9160048401916020909101906141dd565b5050600080546040519092507f1ed675bb725b3a8b0434b9ee956fe05e4c0e79f9dc67c3f1a717a5bb1fd88fd39190a2600080549080613cdd83614843565b91905055505050505050565b60606000600160008481526020019081526020016000206040518060a0016040529081600082018054613d1b906147ef565b80601f0160208091040260200160405190810160405280929190818152602001828054613d47906147ef565b8015613d945780601f10613d6957610100808354040283529160200191613d94565b820191906000526020600020905b815481529060010190602001808311613d7757829003601f168201915b50505050508152602001600182018054613dad906147ef565b80601f0160208091040260200160405190810160405280929190818152602001828054613dd9906147ef565b8015613e265780601f10613dfb57610100808354040283529160200191613e26565b820191906000526020600020905b815481529060010190602001808311613e0957829003601f168201915b50505050508152602001600282018054613e3f906147ef565b80601f0160208091040260200160405190810160405280929190818152602001828054613e6b906147ef565b8015613eb85780601f10613e8d57610100808354040283529160200191613eb8565b820191906000526020600020905b815481529060010190602001808311613e9b57829003601f168201915b50505050508152602001600382018054613ed1906147ef565b80601f0160208091040260200160405190810160405280929190818152602001828054613efd906147ef565b8015613f4a5780601f10613f1f57610100808354040283529160200191613f4a565b820191906000526020600020905b815481529060010190602001808311613f2d57829003601f168201915b50505050508152602001600482018054612029906147ef565b60606000600160008481526020019081526020016000206040518060a0016040529081600082018054613f95906147ef565b80601f0160208091040260200160405190810160405280929190818152602001828054613fc1906147ef565b801561400e5780601f10613fe35761010080835404028352916020019161400e565b820191906000526020600020905b815481529060010190602001808311613ff157829003601f168201915b50505050508152602001600182018054614027906147ef565b80601f0160208091040260200160405190810160405280929190818152602001828054614053906147ef565b80156140a05780601f10614075576101008083540402835291602001916140a0565b820191906000526020600020905b81548152906001019060200180831161408357829003601f168201915b505050505081526020016002820180546140b9906147ef565b80601f01602080910402602001604051908101604052809291908181526020018280546140e5906147ef565b80156141325780601f1061410757610100808354040283529160200191614132565b820191906000526020600020905b81548152906001019060200180831161411557829003601f168201915b5050505050815260200160038201805461414b906147ef565b80601f0160208091040260200160405190810160405280929190818152602001828054614177906147ef565b80156141c45780601f10614199576101008083540402835291602001916141c4565b820191906000526020600020905b8154815290600101906020018083116141a757829003601f168201915b50505050508152602001600482018054610f01906147ef565b8280546141e9906147ef565b90600052602060002090601f01602090048101928261420b5760008555614251565b82601f1061422457805160ff1916838001178555614251565b82800160010185558215614251579182015b82811115614251578251825591602001919060010190614236565b5061425d929150614261565b5090565b5b8082111561425d5760008155600101614262565b60006020828403121561428857600080fd5b5035919050565b6000815180845260005b818110156142b557602081850181015186830182015201614299565b818111156142c7576000602083870101525b50601f01601f19169290920160200192915050565b6020815260006142ef602083018461428f565b9392505050565b7f4e487b7100000000000000000000000000000000000000000000000000000000600052604160045260246000fd5b600082601f83011261433657600080fd5b813567ffffffffffffffff80821115614351576143516142f6565b604051601f8301601f19908116603f01168101908282118183101715614379576143796142f6565b8160405283815286602085880101111561439257600080fd5b836020870160208301376000602085830101528094505050505092915050565b600080604083850312156143c557600080fd5b82359150602083013567ffffffffffffffff8111156143e357600080fd5b6143ef85828601614325565b9150509250929050565b60e08152600061440c60e083018a61428f565b828103602084015261441e818a61428f565b90508281036040840152614432818961428f565b90508281036060840152614446818861428f565b9050828103608084015261445a818761428f565b905082810360a084015261446e818661428f565b905082810360c0840152614482818561428f565b9a9950505050505050505050565b600080600080608085870312156144a657600080fd5b843567ffffffffffffffff808211156144be57600080fd5b6144ca88838901614325565b955060208701359150808211156144e057600080fd5b6144ec88838901614325565b9450604087013591508082111561450257600080fd5b61450e88838901614325565b9350606087013591508082111561452457600080fd5b5061453187828801614325565b91505092959194509250565b608081526000614550608083018761428f565b8281036020840152614562818761428f565b90508281036040840152614576818661428f565b9050828103606084015261458a818561428f565b979650505050505050565b600080600080600080600060e0888a0312156145b057600080fd5b873567ffffffffffffffff808211156145c857600080fd5b6145d48b838c01614325565b985060208a01359150808211156145ea57600080fd5b6145f68b838c01614325565b975060408a013591508082111561460c57600080fd5b6146188b838c01614325565b965060608a013591508082111561462e57600080fd5b61463a8b838c01614325565b955060808a013591508082111561465057600080fd5b61465c8b838c01614325565b945060a08a013591508082111561467257600080fd5b61467e8b838c01614325565b935060c08a013591508082111561469457600080fd5b506146a18a828b01614325565b91505092959891949750929550565b60a0815260006146c360a083018861428f565b82810360208401526146d5818861428f565b905082810360408401526146e9818761428f565b905082810360608401526146fd818661428f565b90508281036080840152614711818561428f565b98975050505050505050565b600080600080600060a0868803121561473557600080fd5b853567ffffffffffffffff8082111561474d57600080fd5b61475989838a01614325565b9650602088013591508082111561476f57600080fd5b61477b89838a01614325565b9550604088013591508082111561479157600080fd5b61479d89838a01614325565b945060608801359150808211156147b357600080fd5b6147bf89838a01614325565b935060808801359150808211156147d557600080fd5b506147e288828901614325565b9150509295509295909350565b60028104600182168061480357607f821691505b6020821081141561483d577f4e487b7100000000000000000000000000000000000000000000000000000000600052602260045260246000fd5b50919050565b600060001982141561487e577f4e487b7100000000000000000000000000000000000000000000000000000000600052601160045260246000fd5b506001019056fea2646970667358221220acfbfff2096793dcb42752de530b5b0f09eccfe6ebbac83b60e03c47b7ddd1c464736f6c634300080b0033",
  "immutableReferences": {},
  "source": "pragma solidity >= 0.8.11 <= 0.8.11;\r\npragma experimental ABIEncoderV2;\r\n//Bidding solidity code\r\ncontract Insure {\r\n\r\n    uint public userCount = 0; \r\n    mapping(uint => user) public userList; \r\n     struct user\r\n     {\r\n       string username;\r\n       string password;\r\n       string phone;\r\n       string email;\r\n       string user_address;\r\n     }\r\n \r\n   // events \r\n   event userCreated(uint indexed _userId);\r\n   \r\n   //function  to save user details to Blockchain\r\n   function saveUser(string memory uname, string memory pass, string memory phone, string memory email, string memory add) public {\r\n      userList[userCount] = user(uname, pass, phone, email, add);\r\n      emit userCreated(userCount);\r\n      userCount++;\r\n    }\r\n\r\n     //get user count\r\n    function getUserCount()  public view returns (uint) {\r\n          return  userCount;\r\n    }\r\n\r\n    uint public policyCount = 0; \r\n    mapping(uint => policy) public policyList; \r\n     struct policy\r\n     {\r\n       string policy_id;\r\n       string policy_name;\r\n       string insurance_amount;\r\n       string purchase_amount;\r\n       string covered_duration;\r\n       string description;   \r\n       string provider_name;       \r\n     }\r\n \r\n   // events \r\n   event policyCreated(uint indexed _auctionId);\r\n   \r\n   //function  to save policy details to Blockchain\r\n   function savePolicy(string memory pid, string memory pname, string memory ins_amount, string memory pur_amount, string memory duration, string memory desc, string memory provider) public {\r\n      policyList[policyCount] = policy(pid, pname, ins_amount, pur_amount, duration, desc, provider);\r\n      emit policyCreated(policyCount);\r\n      policyCount++;\r\n    }\r\n\r\n    //get policy count\r\n    function getPolicyCount()  public view returns (uint) {\r\n          return  policyCount;\r\n    }\r\n\r\n    uint public purchaseCount = 0; \r\n    mapping(uint => purchase) public purchaseList; \r\n     struct purchase\r\n     {\r\n       string username;\r\n       string insurance_id;\r\n       string purchase_date;\r\n       string claim_details;\r\n     }\r\n \r\n   // events \r\n   event purchaseCreated(uint indexed _bidId);\r\n   \r\n   //function  to save purchase details to Blockchain\r\n   function savePurchase(string memory users, string memory iid, string memory pdate, string memory cd) public {\r\n      purchaseList[purchaseCount] = purchase(users, iid, pdate, cd);\r\n      emit purchaseCreated(purchaseCount);\r\n      purchaseCount++;\r\n    }\r\n\r\n     //get purchase count\r\n    function getPurchaseCount()  public view returns (uint) {\r\n          return  purchaseCount;\r\n    }\r\n\r\n    function updateClaim(uint i, string memory value) public { \r\n      purchaseList[i].claim_details = value;\r\n   }\r\n\r\n    function getUsername(uint i) public view returns (string memory) {\r\n        user memory doc = userList[i];\r\n\treturn doc.username;\r\n    }\r\n\r\n    function getPassword(uint i) public view returns (string memory) {\r\n        user memory doc = userList[i];\r\n\treturn doc.password;\r\n    }\r\n\r\n    function getPhone(uint i) public view returns (string memory) {\r\n        user memory doc = userList[i];\r\n\treturn doc.phone;\r\n    }    \r\n\r\n    function getEmail(uint i) public view returns (string memory) {\r\n        user memory doc = userList[i];\r\n\treturn doc.email;\r\n    }\r\n\r\n    function getAddress(uint i) public view returns (string memory) {\r\n        user memory doc = userList[i];\r\n\treturn doc.user_address;\r\n    }\r\n\r\n    function getPolicyID(uint i) public view returns (string memory) {\r\n        policy memory doc = policyList[i];\r\n\treturn doc.policy_id;\r\n    }\r\n\r\n    function getPolicyName(uint i) public view returns (string memory) {\r\n        policy memory doc = policyList[i];\r\n\treturn doc.policy_name;\r\n    }\r\n\r\n    function getInsuredAmount(uint i) public view returns (string memory) {\r\n        policy memory doc = policyList[i];\r\n\treturn doc.insurance_amount;\r\n    }\r\n\r\n    function getPurchaseAmount(uint i) public view returns (string memory) {\r\n        policy memory doc = policyList[i];\r\n\treturn doc.purchase_amount;\r\n    }\r\n\r\n    function getDuration(uint i) public view returns (string memory) {\r\n        policy memory doc = policyList[i];\r\n\treturn doc.covered_duration;\r\n    }\r\n    \r\n    function getDescription(uint i) public view returns (string memory) {\r\n        policy memory doc = policyList[i];\r\n\treturn doc.description;\r\n    }\r\n\r\n    function getProviderName(uint i) public view returns (string memory) {\r\n        policy memory doc = policyList[i];\r\n\treturn doc.provider_name;\r\n    }\r\n\r\n    function getPurchaserName(uint i) public view returns (string memory) {\r\n       purchase memory doc = purchaseList[i];\r\n       return doc.username;\r\n    }\r\n\r\n    function getInsuranceID(uint i) public view returns (string memory) {\r\n        purchase memory doc = purchaseList[i];\r\n\treturn doc.insurance_id;\r\n    }\r\n\r\n    function getPurchaseDate(uint i) public view returns (string memory) {\r\n        purchase memory doc = purchaseList[i];\r\n\treturn doc.purchase_date;\r\n    }\r\n\r\n    function getClaimDetails(uint i) public view returns (string memory) {\r\n        purchase memory doc = purchaseList[i];\r\n\treturn doc.claim_details;\r\n    }\r\n    \r\n    \r\n}",
  "sourcePath": "C:\\Users\\Admin\\Desktop\\Blockchain\\hello-eth\\node_modules\\.bin\\contracts\\Insure.sol",
  "compiler": {
    "name": "solc",
    "version": "0.8.11+commit.d7f03943.Emscripten.clang"
  },
  "schemaVersion": "3.4.4",
  "updatedAt": "2024-12-10T05:45:54.428Z",
  "networkType": "ethereum",
  "devdoc": {
    "kind": "dev",
    "methods": {},
    "version": 1
  },
  "userdoc": {
    "kind": "user",
    "methods": {},
    "version": 1
  }
}